:100000000C9422110C944C110C944C110C944C1126
:100010000C944C110C944C110C944C110C944C11EC
:100020000C944C110C944C110C944C110C944C11DC
:100030000C944C110C94672C0C944C110C944C1196
:100040000C944C110C94B32A0C9474A20C944C1183
:100050000C94EB860C944C110C944C110C944C1198
:100060000C944C110C944C110C944C110C944C119C
:100070000C944C110C944C110C944C110C944C118C
:100080000C944C110C944C110C944C114E414E4953
:100090004E495459494E46CDCCCC3D0AD7233C1746
:1000A000B7D13877CC2B329595E6241FB14F0A0093
:1000B0000020410000C84200401C4620BCBE4CCA83
:1000C0001B0E5AAEC59D74434F4D4D554E4943418D
:1000D00054494F4E0044525952554E004552524FCA
:1000E000525300494E464F004543484F00656E71DC
:1000F00075657565696E672022004B494C4C454417
:100100002E200053544F505045442E200050726909
:100110006E7465722073746F7070656420647565A9
:1001200020746F206572726F72732E20466978207A
:10013000746865206572726F7220616E64207573D9
:1001400065204D39393920746F207265737461727E
:10015000742E202854656D70657261747572652007
:1001600069732072657365742E20536574206974F9
:100170002061667465722072657374617274696E51
:1001800067290A004E6F20436865636B73756D20A5
:1001900077697468206C696E65206E756D62657232
:1001A0002C204C617374204C696E653A20004E6FB0
:1001B00020436865636B73756D2077697468206C84
:1001C000696E65206E756D6265722C204C6173746A
:1001D000204C696E653A2000636865636B73756DCA
:1001E000206D69736D617463682C204C6173742099
:1001F0004C696E653A20004C696E65204E756D62E3
:100200006572206973206E6F74204C617374204C8A
:10021000696E65204E756D6265722B312C204C61C4
:100220007374204C696E653A20004D313130004DB9
:1002300033310053442072656164206572726F72BD
:100240000A00446F6E65207072696E74696E672073
:1002500066696C650A0020496E76616C6964206588
:10026000787472756465722000000004C20000207A
:10027000C10000000000005C4300005C430000700F
:1002800043486F6D696E67206661696C65640050F4
:10029000726F7465637465642050696E0A00205A39
:1002A0003A0020593A0020436F756E7420583A0086
:1002B00020453A00205A3A0020593A00583A003A6C
:1002C000004361703A004B64200023646566696EE8
:1002D000652044454641554C545F004B692000233E
:1002E000646566696E652044454641554C545F001F
:1002F0004B70200023646566696E65204445464165
:10030000554C545F00504944204175746F74756EAC
:10031000652066696E697368656421205075742074
:10032000746865206C617374204B702C204B6920BD
:10033000616E64204B6420636F6E7374616E7473BE
:100340002066726F6D2062656C6F7720696E746FC6
:1003500020436F6E66696775726174696F6E2E688F
:100360000A00504944204175746F74756E652066AB
:1003700061696C6564212074696D656F75740A002C
:10038000453120544845524D414C2052554E41571D
:1003900041590042454420544845524D414C205259
:1003A000554E4157415900546865726D616C205239
:1003B000756E617761790045312048656174696EB9
:1003C00067206661696C65640042656420686561E8
:1003D00074696E67206661696C6564004865617464
:1003E000696E67206661696C65640050494420410C
:1003F00075746F74756E65206661696C6564212023
:1004000054656D706572617475726520746F6F20CC
:10041000686967680A00204B643A2000204B693AFB
:100420002000204B703A20000A20436C61737369EE
:100430006320504944200A002054753A2000204B84
:10044000753A2000206D61783A2000206D696E3A7F
:10045000200020643A200020626961733A20005035
:100460004944204175746F74756E652073746172B0
:10047000740A00504944204175746F74756E65208C
:100480006661696C6564212054656D706572617484
:1004900075726520746F6F20686967680A0050493B
:1004A00044204175746F74756E65206661696C6572
:1004B00064212042616420657874727564657220DD
:1004C0006E756D6265720A00536C6565702E2E2E16
:1004D00000436C69636B20746F20726573756D6582
:1004E0002E2E2E004E6F206D6F76652E00456E64A9
:1004F0002066696C65206C6973740A0042656769DF
:100500006E2066696C65206C6973740A00286E6FD2
:100510002066696C65290043757272656E74206689
:10052000696C653A20005344207072696E74696E7C
:1005300067206279746520004E6F742053442070E8
:1005400072696E74696E670A0044656C6574696FE0
:100550006E206661696C65642C2046696C653A2082
:100560000046696C652064656C657465643A0025B5
:1005700069730025696D2025697300256968202548
:10058000696D202569730025696420256968202527
:10059000696D202569730025697920256964202506
:1005A00069682025696D20256973005072696E7431
:1005B0002074696D653A20006F666600E800E3000C
:1005C000DC00D500C70044454255473A004B494C32
:1005D0004C45442E20006F6B0020573A00452043C5
:1005E0006F6F6C696E672E2E2E0045204865617412
:1005F000696E672E2E2E0020573A004265642063F4
:100600006F6F6C696E672E2E2E00426564206865E0
:100610006174696E672E2E2E003344205072696E0D
:10062000746572204F66662E002C20002C2000542A
:100630004845524D414C5F50524F54454354494FE9
:100640004E004155544F5245504F52545F53445FF2
:1006500053544154555300454D455247454E435917
:100660005F50415253455200434153455F4C494707
:1006700048545F4252494748544E45535300544FE3
:1006800047474C455F4C494748545300534F4654E5
:10069000574152455F504F574552004255494C44CF
:1006A0005F50455243454E54004C4556454C494ECB
:1006B000475F44415441005A5F50524F4245004108
:1006C00055544F4C4556454C005052494E545F4A84
:1006D0004F420050524F4752455353004155544FDB
:1006E0005245504F52545F54454D5000564F4C5553
:1006F0004D455452494300454550524F4D005345D6
:100700005249414C5F584F4E5F584F46460046494C
:10071000524D574152455F4E414D453A4D61726CC5
:10072000696E20312E312E392E31202847697468A8
:1007300075622920534F555243455F434F44455FEF
:1007400055524C3A68747470733A2F2F6769746805
:1007500075622E636F6D2F4D61726C696E466972A2
:100760006D776172652F4D61726C696E2050524FCA
:10077000544F434F4C5F56455253494F4E3A312EDA
:1007800030204D414348494E455F545950453A3316
:1007900044205072696E7465722045585452554415
:1007A00045525F434F554E543A3120555549443ACE
:1007B00063656465326132662D343161322D3437C0
:1007C00034382D396231322D633535633632663334
:1007D000363766660A002F2F20004D3134352053FE
:1007E0003C696E6465783E206F7574206F66207278
:1007F000616E67652028302D31290A0020540020C1
:100800005200416363656C65726174696F6E3A2072
:100810005000486F6D652025732573257320666928
:10082000727374002066697273740A005A0059006A
:100830005800486F6D6520004F66667365747320BD
:100840006170706C696564004572723A20546F6F14
:10085000206661722100546F6F206661722066729B
:100860006F6D207265666572656E636520706F6975
:100870006E740A00205A00205900580020204D6153
:10088000783A2000205A00205900580020204D6955
:100890006E3A20004F6E20004F666600536F6674FC
:1008A00020656E6473746F70733A200020466C6F1D
:1008B000773A200000010F150E12FFFFFFFF1617F9
:1008C0000E13FFFFFFFF03021A14FFFFFFFFFFFFDE
:1008D000FF0C04FFFFFF01000EFFFFFF0C190DFFCF
:1008E00018496E76616C6964206578747275646508
:1008F000720A0020643A0020693A0020703A0043EE
:10090000290A0061626C656420286D696E20746537
:100910006D702000436F6C64206578747275646537
:100920007320617265200020643A0020693A00203B
:10093000703A004E6F2063617365206C696768745C
:100940000A00454550524F4D204F4B0A00416374F9
:100950006976652045787472756465723A2000493D
:100960006E76616C69642065787472756465720A6C
:1009700000526573656E643A20006F6B0020746FDF
:100980006F206C6F6E6720657874727573696F6E17
:100990002070726576656E7465640A0020636F6C02
:1009A0006420657874727573696F6E2070726576F5
:1009B000656E7465640A004B494C4C45442E20001A
:1009C0004B494C4C206361757365642062792074D7
:1009D0006F6F206D75636820696E616374697665F9
:1009E0002074696D65202D2063757272656E7420A8
:1009F000636F6D6D616E643A2000506C6561736564
:100A0000207265736574005052494E544552204817
:100A1000414C544544005072696E7465722068619F
:100A20006C7465642E206B696C6C28292063616C82
:100A30006C6564210A00000004C2000020C10000AF
:100A400000000000C8420000C842000080400000D2
:100A500000005761726E696E673A20486F6D696E6B
:100A6000672042756D702044697669736F72203C0F
:100A700020310A000202040000A0400000A0400053
:100A800000004000007D430000664300007043FF0B
:100A9000FFFF7C3C3E5E2B3D3F2F5B5D3B2C2A22C3
:100AA0005C004572726F722077726974696E67209C
:100AB000746F20454550524F4D210A004545505214
:100AC0004F4D206461746173697A65206572726F3D
:100AD000722E0A00290A002062797465733B206334
:100AE0007263200053657474696E67732053746F6A
:100AF000726564202800290A002062797465733BBE
:100B00002063726320002073746F726564207365C4
:100B10007474696E67732072657472696576656452
:100B2000202800202863616C63756C6174656429FA
:100B3000210A0020213D2000454550524F4D2043C1
:100B40005243206D69736D61746368202D20287392
:100B5000746F7265642920002053697A653A200019
:100B6000496E6465783A2000204D61726C696E3D73
:100B7000563536290A0028454550524F4D3D00450F
:100B80004550524F4D2076657273696F6E206D69C6
:100B9000736D61746368200048617264636F64659B
:100BA000642044656661756C742053657474696E65
:100BB0006773204C6F616465640A00D0070000D041
:100BC00007000064000000102700000000C8430078
:100BD00000C84300000041000048420000C8420035
:100BE00000C8420000C8430000C84220286D6D299B
:100BF0000020440020490020204D33303420500094
:100C000020440020490020204D3330312050005036
:100C100049442073657474696E67733A0A0020460C
:100C20000020420020480020204D31343520530060
:100C30004D6174657269616C2068656174757020BE
:100C4000706172616D65746572733A0A00205A00B2
:100C500020590020204D323036205800486F6D65F5
:100C6000206F66667365743A0A00204500205A00BA
:100C700020590020580020540020530020204D32DD
:100C8000303520510020453C6D61785F655F6A65B5
:100C9000726B3E0020583C6D61785F785F6A6572C8
:100CA0006B3E20593C6D61785F795F6A65726B3E7F
:100CB000205A3C6D61785F7A5F6A65726B3E0041D5
:100CC0006476616E6365643A20513C6D696E5F7352
:100CD00065676D656E745F74696D655F75733E20E1
:100CE000533C6D696E5F66656564726174653E2034
:100CF000543C6D696E5F74726176656C5F666565A4
:100D000064726174653E0020540020520020204D22
:100D1000323034205000416363656C6572617469E0
:100D20006F6E2028756E6974732F7332293A2050C4
:100D30003C7072696E745F616363656C3E20523C07
:100D4000726574726163745F616363656C3E2054A5
:100D50003C74726176656C5F616363656C3E0A002A
:100D6000204500205A0020590020204D32303120EB
:100D700058004D6178696D756D20416363656C65E0
:100D8000726174696F6E2028756E6974732F733287
:100D9000293A0A00204500205A0020590020204D01
:100DA0003230332058004D6178696D756D2066656D
:100DB000656472617465732028756E6974732F732E
:100DC000293A0A00204500205A0020590020204DD1
:100DD0003932205800537465707320706572207525
:100DE0006E69743A0A0020204D3230302044300AB7
:100DF0000020204D3230302044002044697361626D
:100E00006C65640A0046696C616D656E742073657B
:100E10007474696E67733A0020204D313439204371
:100E2000203B20556E69747320696E2043656C7396
:100E30006975730A002020473231202020203B00B2
:100E4000545249474745524544006F70656E003A19
:100E500020007A5F6D696E00795F6D696E00785F62
:100E60006D696E005265706F7274696E6720656E91
:100E70006473746F70207374617475730A0024F462
:100E8000D43050C38E20C2A24017828B7011127AC8
:100E9000910D816CD90AA861E108C75866076151B4
:100EA00043061E4B5D05C145A7041A411104093DC7
:100EB0009803713931034036DB0265339102D43037
:100EC0005402802E1D02632CEE01752AC501B02844
:100ED000A001102781018F2564012B244B01E02202
:100EE0003401AC211F018D200D01801FFC00841EE8
:100EF000ED00971DDF00B81CD200E61BC600201BCA
:100F0000BC00641AB200B219A8000A19A0006A183D
:100F10009900D117910040178B00B5168400311647
:100F20007E00B31579003A157300C7146F0058148A
:100F30006A00EE1366008813630025135E00C71273
:100F40005B006C12570015125400C1115100701152
:100F50004F0021114B00D61049008D10470046105C
:100F6000440002104200C00F4000800F3E00420FBC
:100F70003C00060F3B00CB0E3800930E37005C0E92
:100F80003500270E3400F30D3200C10D3100900DF5
:100F90003000600D2E00320D2D00050D2C00D90CF7
:100FA0002B00AE0C2900850C29005C0C2700350CA9
:100FB00027000E0C2600E80B2400C40B2400A00B15
:100FC00023007D0B23005A0B2100390B2100180B45
:100FD0002000F80A1F00D90A1E00BB0A1E009D0A45
:100FE0001D00800A1D00630A1C00470A1B002C0A12
:100FF0001B00110A1A00F7091A00DD091900C409BB
:101000001900AB091900920917007B091800630940
:1010100017004C09160036091600200916000A09A7
:101020001500F5081500E0081400CC081400B808F5
:101030001400A4081400900813007D0812006B0827
:101040001300580812004608120034081100230843
:1010500011001208110001081100F0071000E0074C
:101060001000D0071000C0071000B0070F00A10744
:10107000100091070E0083070F0074070F0065072B
:101080000E0057070E0049070E003B070D002E0704
:101090000E0020070D0013070D0006070D00F906CE
:1010A0000C00ED060D00E0060C00D4060C00C8068E
:1010B0000C00BC060C00B0060C00A4060B00990640
:1010C0000C008D060B0082060B0077060B006C06E9
:1010D0000B0061060A0057060B004C060A00420688
:1010E0000A0038060A002E060A0024060A001A061C
:1010F0000A001006090007060A00FD050900F405AC
:101100000900EB050900E2050900D9050900D00531
:101110000900C7050900BE050900B5050800AD05B1
:101120000800A50509009C050800940508008C0529
:101130000800840508007C050800740508006C059B
:101140000700650508005D050700560508004E0507
:10115000070047050700400508003805070031056E
:1011600007002A050700230507001C0506001605D1
:1011700007000F0507000805060002050700FB042D
:101180000600F5040700EE040600E8040600E20489
:101190000700DB040600D5040600CF040600C904DE
:1011A0000600C3040600BD040600B7040600B1042F
:1011B0000500AC040600A6040600A00405009B047C
:1011C000060095040500900406008A0405008504C5
:1011D0000500800406007A0405007504050070040B
:1011E00005006B04050066040500610405005C044D
:1011F000050057040500520405004D04050048048D
:101200000500430405003E0404003A0405003504CB
:101210000500300404002C04050027040400230406
:1012200005001E0404001A0404001604050011043D
:1012300004000D0404000904050004040400000473
:101240000400FC030400F8030400F4030400F003AA
:101250000400EC030400E8030400E4030400E003DA
:101260000400DC030400D8030400D4030400D0030A
:101270000400CC030400C8030300C503030024F4E6
:1012800004D9201BC40C5C0E9804C4095F026507D6
:101290007101F405F900FB04B30048048700C103A1
:1012A00069005803550003034500BE023A0084025A
:1012B000310053022A002902250004022000E40123
:1012C0001C00C8011900AF01170098011400840127
:1012D0001300710110006101100051010E00430163
:1012E0000D0036010B002B010B0020010B00150136
:1012F00009000C01090003010800FB000800F300CD
:101300000800EB000700E4000600DE000600D8003D
:101310000600D2000600CC000500C7000500C20090
:101320000500BD000400B9000400B5000400B100D0
:101330000400AD000400A9000400A5000300A20001
:1013400003009F0004009B00030098000300950029
:10135000020093000300900003008D0002008B0048
:101360000300880002008600020084000300810060
:1013700002007F0002007D0002007B000200790075
:101380000200770001007600020074000200720083
:101390000100710002006F0002006D0001006C008E
:1013A00002006A0001006900020067000100660097
:1013B000010065000100640002006200010061009C
:1013C0000100600001005F0002005D0001005C00A0
:1013D00001005B0001005A000100590001005800A3
:1013E00001005700010056000100550001005400A3
:1013F00001005300000053000100520001005100A1
:101400000100500001004F0001004E0000004E009E
:1014100001004D0001004C0001004B0000004B009A
:1014200001004A0001004900010048000000480096
:101430000100470001004600000046000100450091
:10144000000045000100440001004300000043008B
:101450000100420000004200010041000000410084
:101460000100400001003F0000003F0001003E007D
:1014700000003E0001003D0000003D0001003C0076
:1014800000003C0000003C0001003B0000003B006D
:1014900001003A0000003A00010039000000390064
:1014A000010038000000380000003800010037005B
:1014B0000000370001003600000036000000360052
:1014C0000100350000003500000035000100340047
:1014D000000034000000340001003300000033003D
:1014E0000000330001003200000032000000320032
:1014F0000100310000003100000031000100300027
:10150000000030000000300001002F0000002F001C
:1015100000002F0000002F0001002E0000002E0010
:1015200000002E0001002D0000002D0000002D0005
:1015300000002D0001002C0000002C0000002C00F9
:1015400000002C0001002B0000002B0000002B00ED
:1015500000002B0001002A0000002A0000002A00E1
:1015600000002A00010029000000290000002900D5
:1015700000002900000029000100280000002800C8
:1015800000002800000028000000280001002700BB
:1015900000002700000027000000270000002700AF
:1015A00001002600000026000000260000002600A2
:1015B0000000260001002500000025000000250095
:1015C0000000250000002500000025000100240087
:1015D000000024000000240000002400000024007B
:1015E000010023000000230000002300000023006E
:1015F000000023000000230000002300010022005F
:101600000000220000002200000022000000220052
:101610000000220001002100000021000000210044
:101620000000210000002100000021000000210036
:101630000100200000002000000020000000200029
:10164000000020000000200000002000000020001A
:1016500001001F0000001F0000001F0000001F000D
:1016600000001F0000001F0000001F0001001E00FE
:1016700000001E0000001E0000001E0000000437D5
:1016800000001E290000511B000058100000100926
:101690000000CC04000078020000410100006265F7
:1016A000640A002C2073797374656D2073746F70F5
:1016B00070656421204865617465725F49443A2011
:1016C000004265642068656174696E6720666169BF
:1016D0006C65640048656174696E67206661696C59
:1016E00065640045312048656174696E67206661F4
:1016F000696C65640048656174696E67206661693C
:101700006C6564001000C90210012C014001220127
:1017100070011801B0010E01F00104015002FA003D
:10172000B002F0003003E600D003DC009004D200E9
:101730007005C800A006BE000008B400B009AA00E9
:10174000D00BA000600E960060118C000015820086
:1017500020197800C01D6E00A0226400B0275A0036
:10176000902C500000314600E0343C00103832002C
:10177000903A2800603C1E00A03D1400803E0A0004
:10178000203F00004531204572723A204D415854A7
:10179000454D50004572723A204D415854454D50C8
:1017A00020424544004D415854454D5020747269C3
:1017B000676765726564004531204572723A204D55
:1017C000494E54454D50004572723A204D494E5491
:1017D000454D5020424544004D494E54454D502002
:1017E000747269676765726564004D3834205820EB
:1017F00059205A204500202F002042403A00204026
:101800003A0025753A2530327500253032753A2573
:10181000303275002D2D2D00534400202020202033
:10182000200020202020003344205072696E74650F
:10183000722052656164792E005072696E74696E0F
:10184000672E2E2E005072696E742070617573655C
:1018500064005072696E742061626F727465640016
:101860004D3231004E6F2053442063617264004357
:1018700068616E67652053442063617264004D3275
:1018800031005072696E742066726F6D205344008F
:1018900053746F70207072696E7400526573756D49
:1018A00065207072696E7400496E69742E2053440D
:1018B0002063617264005061757365207072696E97
:1018C0007400436F6E74726F6C0050726570617259
:1018D000650054756E6500496E666F2073637265AE
:1018E000656E00466C6F7700466C6F770046616EE0
:1018F0002073706565640046616E20737065656471
:101900000042656400426564004E6F7A7A6C65003F
:101910004E6F7A7A6C65005370656564005370652C
:101920006564004D61696E00507265686561742080
:10193000504C4120456E64005072656865617420AA
:10194000504C4120426564005072656865617420A6
:10195000504C41005072657061726500507265684C
:101960006561742041425320456E64005072656881
:10197000656174204142532042656400507265687D
:101980006561742041425300507265706172650058
:101990004D343238005072656865617420504C4196
:1019A00000436F6F6C646F776E005072656865619D
:1019B00074204142530044697361626C6520737402
:1019C000657070657273004D38340053657420681B
:1019D0006F6D65206F666673657473004175746F13
:1019E00020686F6D6500473238004D6F7665206165
:1019F000786973004D61696E004D6F7665205800FF
:101A00004D6F76652059004D6F7665205A004578F8
:101A1000747275646572004D6F766520302E316D7D
:101A20006D004D6F766520316D6D004D6F766520D0
:101A300031306D6D004D6F766520617869730045BA
:101A400078747275646572004D6F7665205A004D2A
:101A50006F76652059004D6F766520580045787483
:101A60007275646572004D6F7665205A004D6F7611
:101A7000652059004D6F7665205800507265706181
:101A8000726500496E697469616C697A65204545C3
:101A900050524F4D00436F6E74726F6C00526573FD
:101AA000746F7265206661696C73616665004C6F66
:101AB00061642073657474696E677300496E69743C
:101AC00069616C697A6520454550524F4D005374E9
:101AD0006F72652073657474696E67730046696C14
:101AE000616D656E74004D6F74696F6E0054656D45
:101AF0007065726174757265004D61696E00507237
:101B000065686561742041425320636F6E660050C2
:101B100072656865617420504C4120636F6E660089
:101B20005049442D44005049442D44005049442D0F
:101B300049005049442D49005049442D5000504916
:101B4000442D500046616E207370656564004661E7
:101B50006E207370656564004265640042656400D0
:101B60004E6F7A7A6C65004E6F7A7A6C6500436FBF
:101B70006E74726F6C0053746F7265207365747449
:101B8000696E67730042656400426564004E6F7A57
:101B90007A6C65004E6F7A7A6C650046616E2073D0
:101BA000706565640046616E2073706565640054FD
:101BB000656D7065726174757265005654726176F8
:101BC000206D696E005654726176206D696E005604
:101BD0006D696E00566D696E00566D617820450026
:101BE000566D6178204500566D6178205A00566D1B
:101BF0006178205A00566D6178205900566D6178E1
:101C0000205900566D6178205800566D6178205833
:101C1000004D6F74696F6E00416D61782045004121
:101C20006D6178204500416D6178205A00416D61F9
:101C300078205A00416D6178205900416D6178200B
:101C40005900416D6178205800416D61782058003D
:101C5000412D74726176656C00412D7472617665F8
:101C60006C00412D7265747261637400412D726560
:101C7000747261637400416363656C004163636502
:101C80006C004D6F74696F6E0056652D6A65726BDE
:101C90000056652D6A65726B00567A2D6A65726B07
:101CA00000567A2D6A65726B0056792D6A65726BE3
:101CB0000056792D6A65726B0056782D6A65726BD5
:101CC0000056782D6A65726B004D6F74696F6E00F7
:101CD0004573746570732F6D6D0045737465707313
:101CE0002F6D6D005A73746570732F6D6D005A738C
:101CF000746570732F6D6D005973746570732F6DFB
:101D00006D005973746570732F6D6D005873746531
:101D100070732F6D6D005873746570732F6D6D0047
:101D20004D6F74696F6E0053746570732F6D6D0025
:101D30004A65726B00416363656C65726174696FBB
:101D40006E0056656C6F6369747900436F6E7472D0
:101D50006F6C0046696C2E204469612E0046696CE8
:101D60002E204469612E004F6666004F6E200045AC
:101D700020696E206D6D3300436F6E74726F6C005E
:101D800043616E6E6F7420656E7465722073756248
:101D90006469723A2000052E2E0004526566726551
:101DA0007368004D61696E00A00F001003A00F0062
:101DB0001002A00F0010012C01F401086C07980814
:101DC000053A026603076E0A360B047E04AA05066E
:101DD000001C1F11111F00000006191803130C002E
:101DE000040E1F041C000000000E1315110E00004D
:101DF0001C10181705060500040A0A0A0A11110E1C
:101E00000C12120C00000000001F1511151F00001D
:101E100000002100240027002A00000022002500E5
:101E200028002B00000020002300260029000202C9
:101E30000202020202020404040404040404030370
:101E40000303030303030101010101010101010275
:101E50000408102040800102040810204080010284
:101E60000408102040808040201008040201000077
:101E7000000102000000000000000403070600004B
:101E80000000000000000000000000000000000052
:101E90000000010204040000001C1C0C04040402E5
:101EA00001000000000004081000000000002D2DBB
:101EB0002D2D2D2D007C4D61726C696E7C002D2DB9
:101EC0002D2D2D2D00687474703A2F2F6D61726C5A
:101ED000696E66772E6F726700687474703A2F2F80
:101EE0006D61726C696E66772E6F72670020312E9D
:101EF000312E392E31002020506C616E6E65724299
:101F0000756666657242797465733A200020467280
:101F10006565204D656D6F72793A2000436F6D7075
:101F2000696C65643A204665622031312032303276
:101F3000320A00207C20417574686F723A20284272
:101F40006F62204B75686E2C20416E657420636F44
:101F50006E666967290A00323032302D30362D32F4
:101F60003000204C61737420557064617465643A6C
:101F70002000312E312E392E310A004D61726C69EC
:101F80006E0020536F6674776172652052657365C9
:101F9000740A00205761746368646F672052657328
:101FA00065740A002042726F776E206F757420523C
:101FB000657365740A002045787465726E616C20E3
:101FC00052657365740A00506F77657255700A0028
:101FD00073746172740A006175746F25692E6700ED
:101FE0006572726F722077726974696E6720746FA0
:101FF0002066696C650A00456E6473746F707320A7
:10200000256320256320256320256300205A3A009C
:1020100020593A0020583A00656E6473746F7073EB
:10202000206869743A2000446F6E65207361766998
:102030006E672066696C652E0A004D3239004D329C
:1020400034004D323320257300556E6B6E6F776E02
:1020500020636F6D6D616E643A20220053442063EB
:10206000617264206F6B0A006F70656E526F6F74DF
:10207000206661696C65640A00766F6C756D652E0B
:10208000696E6974206661696C65640A0053442056
:10209000696E6974206661696C0A0020746F6F2034
:1020A0006C6F6E6720657874727573696F6E2070DF
:1020B000726576656E7465640A0020636F6C6420D7
:1020C000657874727573696F6E2070726576656E6F
:1020D0007465640A0057726974696E6720746F20B2
:1020E00066696C653A20006F70656E206661696C88
:1020F00065642C2046696C653A20006F70656E201F
:102100006661696C65642C2046696C653A200046FE
:10211000696C652073656C65637465640A0020539F
:10212000697A653A200046696C65206F70656E6556
:10213000643A20002066696C653A2000646F696E1D
:1021400067006672657368004E6F772000454E44E5
:1021500020535542524F5554494E450A0022207093
:102160006F73002220706172656E743A22005355BD
:1021700042524F5554494E452043414C4C207461C6
:10218000726765743A22004B494C4C45442E20003E
:10219000747279696E6720746F2063616C6C207350
:1021A00075622D67636F64652066696C657320775F
:1021B00069746820746F6F206D616E79206C65762C
:1021C000656C732E204D4158206C6576656C2069D6
:1021D000733A004572726F723A006F70656E2066D6
:1021E00061696C65642C2046696C653A2000436126
:1021F0006E6E6F74206F70656E20737562646972A5
:1022000020006563686F3A00453120544845524DBF
:10221000414C2052554E41574159004245442054AB
:102220004845524D414C2052554E4157415900545A
:102230006865726D616C2052756E6177617900001E
:102240000EB9D7B811241FBECFEFD0E4DEBFCDBF8B
:1022500012E0A0E0B1E0E6EFF3E901E00BBF02C05D
:1022600007900D92A031B107D9F720E1A0E1B2E0CB
:1022700001C01D92AF3FB207E1F711E1C1E2D1E128
:1022800004C02197FE010E945EC9C032D107C9F780
:102290000E94C0B90C94EEC90C9400002CEA35ECF5
:1022A00047E25EE36091770470917804809179044D
:1022B00090917A040E948DC760937B0470937C0494
:1022C00080937D0490937E0408952CEA35EC47E2D8
:1022D0005EE360917F04709180048091810490910D
:1022E00082040E943FC360938304709384048093AC
:1022F00085049093860408956091150170911601EC
:10230000072E000C880B990B0E94E0C22AE037EDE3
:1023100043E25CE30E943FC3209151043091520498
:1023200040915304509154040E943FC36093320182
:102330007093330180933401909335010895909107
:102340006F00292F227091FF05C090916F009D7F33
:1023500090936F0034E0839FC0011124FC01E95485
:10236000FC4F408151816281738185559C4FFC01F6
:10237000408351836283738381E08093AA03222385
:1023800029F080916F00826080936F0008954F92D2
:102390005F926F927F928F929F92AF92BF92EF92D5
:1023A000FF920F931F93CF93DF93C3E9D4E08EEC9A
:1023B000E82E8DE0F82E0AEA18E0412C512C32016B
:1023C00043946991799189919991F70181909190C4
:1023D000A190B1907F010E94DEC2A50194010E94EC
:1023E0003FC30E9406C8F801619371938193919352
:1023F0008F01461657066806790610F42B013C013A
:10240000F4E0C33ADF07E9F66FEF7FEFCB01A301FA
:1024100092010E94CDC62093BA083093BB08409326
:10242000BC085093BD08DF91CF911F910F91FF9091
:10243000EF90BF90AF909F908F907F906F905F9044
:102440004F9008950C94C711CF93DF9390916F0034
:10245000292F227091FF05C090916F009D7F90936E
:102460006F0094E0899FA0011124FA01E954FC4F08
:102470006081718182819381222329F020916F00F4
:10248000226020936F00EA01CE51D74F0E94E0C234
:10249000288139814A815B810E943FC3DF91CF91BE
:1024A0000895CF92DF92EF92FF928091A704882344
:1024B00009F457C0C090A304D090A404E090A504F0
:1024C000F090A60420E030E0A901C701B6010E9407
:1024D000D9C2882309F445C020E030E040E05FE342
:1024E000C701B6010E943FC39B01AC010E943FC3DC
:1024F0002BED3FE049E450E40E943FC39B01AC0157
:1025000060E070E080E89FE30E948DC76B017C0172
:10251000C0925104D0925204E0925304F0925404B9
:102520006091150170911601072E000C880B990B14
:102530000E94E0C22AE037ED43E25CE30E943FC321
:10254000A70196010E943FC360933201709333014B
:102550008093340190933501FF90EF90DF90CF90FE
:102560000895C12CD12C80E8E82E8FE3F82ED0CF2F
:1025700080916F00982F927081FF05C080916F004D
:102580008D7F80936F001092DA081092DB08109212
:10259000DC081092DD08992329F080916F00826099
:1025A00080936F0008950F931F938091230E909155
:1025B000240E891B8F7009F449C09091200E992335
:1025C00061F0833040F48FEF890F29F08093200E63
:1025D00090E080E038C01092200E8091240E2DE40F
:1025E000829FC00111248350974FFC01208120FD60
:1025F000EFCF4091DA085091DB086091DC087091D0
:10260000DD08E75BFF4F0081118122813381401B90
:10261000510B620B730B4093DA085093DB08609305
:10262000DC087093DD082091240E2F5F2F7020931B
:10263000210E3091240E2091220E321304C02091DD
:10264000210E2093220E1F910F9108950E94B8121F
:10265000BFCFCF93DF938091600332994BC08160ED
:102660008093600380916003339946C082608093B9
:10267000600380916003349941C08460809360035B
:10268000C0919B03C0FF10C08091610380FF0CC00C
:102690008091600380FF08C08091E5048160809391
:1026A000E50480E00E949F11C1FF10C0809161038A
:1026B00081FF0CC08091600381FF08C08091E50418
:1026C00082608093E50481E00E949F11C2FF18C0E0
:1026D0008091610382FF14C08091600382FF10C06B
:1026E0008091E50484608093E50482E0DF91CF91DE
:1026F0000C949F118E7FB4CF8D7FB9CF8B7FBECFCF
:10270000DF91CF9108955E9A8091C2048E7F80936D
:10271000C2045E9A8091C2048D7F8093C204159A90
:102720008091C2048B7F8093C2045E9A0895CF93F8
:10273000DF9380E00E942412C9E2D3E068837983AA
:102740008A839B8381E00E9424126C837D838E8325
:102750009F8382E00E942412688779878A879B87FB
:10276000DF91CF9108950F931F93CF93DF9394E060
:10277000899FE00111248E010B5A1B4FFE01EC537F
:10278000FB4FDE01AE5BBC4F2D913D914D915C91B5
:1027900060817181828193810E940AC7F801608300
:1027A000718382839383FE01E759FD4F8591959153
:1027B000A591B491FE01EF59FB4F80839183A283D1
:1027C000B383FE01EB58FD4F85919591A591B4918E
:1027D000C75EDE4F88839983AA83BB83DF91CF9145
:1027E0001F910F9108959091E404E92FF0E0E052D9
:1027F000FB4F80839F5F943040F49093E40480917A
:1028000067068F5F8093670608951092E404F7CF00
:102810002FEB280F2A3108F042C0E22FF0E0809120
:102820009E0290919F02A091A002B091A10204C0CB
:10283000B695A795979587952A95D2F780FD02C002
:1028400081700895EC57FD4FE081EE2329F18091CE
:102850008D0690918E06E80FF92FF11D808190ED85
:10286000980F9A3030F08E3251F4818180538A3043
:1028700098F4F0931102E093100281E008958D32F4
:1028800011F08B3249F4818190ED980F9A3088F3E2
:102890008E3211F48281EACFF0E0E0E0EACF80E00E
:1028A00008950E940814882341F081E020911002CD
:1028B00030911102232B09F480E00895089590E0EF
:1028C00080E0089580912703909128032FEF3FEF38
:1028D000981751F0E92FF0E0E955FD4F208130E0E5
:1028E0009F5F9F7790932803C90108950C94F19FEF
:1028F000CF92DF92EF92FF92CF93C82F0E94E59F75
:102900006B017C0124EA30E74DE75FE360916D04E1
:1029100070916E0480916F04909170040E94D9C2EE
:1029200087FD18C08AEF90E0A0E0B0E08C0D9D1DFF
:10293000AE1DBF1D8093A9049093AA04A093AB047D
:10294000B093AC04C0932601CF91FF90EF90DF903D
:10295000CF90089580E090E0DC01E8CF0F931F93C3
:1029600080915004813019F50E94E59F0091CB03BE
:102970001091CC032091CD033091CE03601B710BDD
:10298000820B930B28EE33E040E050E00E94CDC66E
:102990006091C7037091C8038091C9039091CA03E5
:1029A000620F731F841F951F1F910F9108956091EF
:1029B000CF037091D0038091D1039091D203D6CFF1
:1029C00080915004813079F482E0809350040E9419
:1029D000E59F6093CF037093D0038093D1039093CE
:1029E000D20381E0089580E008958F929F92AF9284
:1029F000BF92CF92DF92EF92FF920F93CF93DF932C
:102A00001F92CDB7DEB76C017B01490180915E0357
:102A10005B01A40EB51E8823A1F0F601808191818F
:102A2000480F591F518340830F90DF91CF910F9131
:102A3000FF90EF90DF90CF90BF90AF909F908F90DE
:102A40000895F601808191810E94A7C689839091A3
:102A50005F03992311F0002311F0F7018083BE0179
:102A60006F5F7F4FC4010E942A99F6018081918196
:102A7000019691838083FFEFEF1AFF0AEA14FB04AB
:102A800001F7D2CFCF92DF92EF920F931F93CF93A4
:102A9000DF9300D000D0CDB7DEB7E090A804198254
:102AA0001A821B821C82CE0101966C0100E011E0AB
:102AB0002CED34E048ED54E064ED74E080ED94E0FA
:102AC0000E94268C0F900F900F900F90DF91CF9166
:102AD0001F910F91EF90DF90CF9008958091100299
:102AE00090911102009731F04AE050E070E060E010
:102AF0000C94ECBF60E070E0CB0108950E946E156D
:102B000097FD0CC00E946E156F3F71058105910500
:102B100009F034F40E946E15862F089580E0089520
:102B20008FEF08958091100290911102892B41F04E
:102B30000E947E1591E0811101C090E0892F0895D7
:102B400091E0FCCF8091100290911102009731F03A
:102B50004AE050E070E060E00C941AC160E070E080
:102B6000CB0108950F931F93CF9380911002909102
:102B700011020097E9F0FC018F01C1912C2F2F7DEC
:102B800081F0C53411F0C536B9F7F801108270E054
:102B900060E00E948EBEF801C083CF911F910F911B
:102BA000089570E060E0CF911F910F910C948EBE5C
:102BB00060E070E0CB01F1CF809150048230B1F041
:102BC0009091370E992359F08091480E811104C0DD
:102BD0008BE39EE00C942D8B88E49EE0FBCF81304C
:102BE00041F087E298E16FEF0C940DAA85E498E13B
:102BF000FACF89E398E1F7CF809145048630D8F485
:102C000096E0899FF0011124EF5DFB4F20912F0189
:102C100030913001318320834091850650918606A2
:102C2000609187067091880642835383648375831D
:102C30008F5F80934504089520912F0130913001DA
:102C400028173907D9F09093300180932F014093D2
:102C500085065093860660938706709388068F5189
:102C6000964221F41092AD04109245040E94EE9D0C
:102C700082E08093380181E080938306089521E00B
:102C80002093AD0460936D0470936E0480936F0481
:102C90009093700440E050E0BA01809171049091EB
:102CA00072040C941C1660E070E080E291E40C94D5
:102CB0003F1660E070E080E89FE30C943F166DECF7
:102CC0007CEC8CEC9DE30C943F1640E050E0BA01A4
:102CD0008FE196E20C941C16E0914504EE2389F0F6
:102CE000E150E093450486E0E89FF0011124EF5D98
:102CF000FB4F4281538164817581808191810C9465
:102D00001C160C946516EF92FF920F93CF93DF93EE
:102D1000D82F7A01C22F80E00E94DC9DD11101C022
:102D2000C0E28C2F0E942C9EC2E1F70164916623C1
:102D300059F0CC2389F088E09EE00E94F69DC150B6
:102D4000FFEFEF1AFF0AF1CFC15030F060E288E0E8
:102D50009EE00E94F69DF8CF802FDF91CF910F91DA
:102D6000FF90EF900C942C9E2F923F924F925F9287
:102D70006F927F928F929F92AF92BF92CF92DF928B
:102D8000EF92FF920F931F93CF93DF9300D000D069
:102D9000CDB7DEB70E946E9910918106F12CEE241A
:102DA000E39489E5C82E8CE1D82E812C912C540116
:102DB00083942DED422E23E0522E612C712C3DE99F
:102DC000232E35EA332E111140C0809184068823CA
:102DD000C9F080913801882361F081E090918406E8
:102DE000911180E003E023E042E85CE16F2D0E9456
:102DF00083161F5FF394B4E0FB12E5CF88E0809365
:102E000082060CC08091B204882319F31092B20498
:102E10000E946C16809183068823D9F20F900F9040
:102E20000F900F90DF91CF911F910F91FF90EF9036
:102E3000DF90CF90BF90AF909F908F907F906F90DA
:102E40005F904F903F902F900895113009F077C018
:102E5000809184068130B1F080913801882349F255
:102E600001E080918406813009F000E082EC98E076
:102E70000E9421A49C0146E75CE16F2D802F0E94F7
:102E80003EADB7CF8091B204882331F31092B204E3
:102E9000109389061092AE041092AF041092B00401
:102EA0001092B1040E94FC1583E080933801ACE7D6
:102EB000BCE1B0937B06A0937A0682EC98E09093F5
:102EC0007906809378061092740610927506109217
:102ED0007606109277068EED93E0A0E0B0E0809346
:102EE000700690937106A0937206B09373062AE061
:102EF00037ED43E25CE36091C2087091C3088091B2
:102F0000C4089091C5080E943FC30E9406C8609300
:102F10008506709386068093870690938806309284
:102F2000300120922F0110927E0610927D061092A1
:102F30007C0680918306882309F48ECF6FCF1230F0
:102F400009F0D4C180918406823099F080913801D3
:102F5000882309F44ECF01E080918406823009F085
:102F600000E086EC98E00E9421A49C0142E65CE12E
:102F700084CF8091B204882349F31092B204E09286
:102F800089061092AE041092AF041092B004109211
:102F9000B1040E94FC1593E090933801ACE6BCE1CB
:102FA000B0937B06A0937A0686EC98E0909379061E
:102FB000809378068092740690927506A0927606A9
:102FC000B092770640927006509271066092720637
:102FD000709273062AE037ED43E25CE36091C60825
:102FE0007091C7088091C8089091C9080E943FC39A
:102FF00020E030E040E85FE30E9409C70E9406C875
:103000006093850670938606809387069093880662
:103010003092300120922F0110927E0610927D0690
:1030200010927C0680918306882309F48FCFF6CE18
:1030300080918406833099F080913801882309F4C7
:10304000D8CE01E080918406833009F000E08EEB59
:1030500098E00E9421A49C0140E55CE10ECF8091A4
:10306000B204882349F31092B204E09289061092C8
:10307000AE041092AF041092B0041092B1040E94FA
:10308000FC1510933801D0927B06C0927A06AEEB05
:10309000B8E0B0937906A093780680927406909277
:1030A0007506A0927606B09277064092700650920E
:1030B000710660927206709273062AE037ED43E261
:1030C0005CE36091BE087091BF088091C008909148
:1030D000C1080E943FC320E030E040E85FE30E9467
:1030E00009C70E9406C86093850670938606809380
:1030F0008706909388063092300120922F0110921B
:103100007E0610927D0610927C06809183068823AD
:1031100009F492CF83CE80918406843009F18091A6
:103120003801882309F465CE01E08091840684305B
:1031300009F000E0609193047091940480919504EB
:10314000909196040E94DEC269837A838B839C836C
:10315000CE0101960E9421A49C0142E45CE18DCE47
:103160008091B2048823D9F21092B204E0928906C9
:103170001092AE041092AF041092B0041092B104F9
:1031800024E630E040E050E063E974E089E49CE14B
:103190000E94759C80918306882309F23FCE80911E
:1031A0008406853009F180913801882309F421CE05
:1031B00001E080918406853009F000E06091970479
:1031C000709198048091990490919A040E94DEC2B3
:1031D00069837A838B839C83CE0101960E9421A40C
:1031E0009C0144E35CE149CE8091B2048823D9F28A
:1031F0001092B204E09289061092AE041092AF04CD
:103200001092B0041092B10424E630E040E050E0A7
:1032100067E974E08BE39CE10E94759C80918306D2
:10322000882309F2FBCD80918406863009F18091D4
:103230003801882309F4DDCD01E0809184068630D1
:1032400009F000E060919B0470919C0480919D04C2
:1032500090919E040E94DEC269837A838B839C8353
:10326000CE0101960E9421A49C0146E25CE105CEBC
:103270008091B2048823D9F21092B204E0928906B8
:103280001092AE041092AF041092B0041092B104E8
:103290002AE030E040E050E06BE974E08DE29CE130
:1032A0000E94759C80918306882309F2B7CD809196
:1032B000B204882371F11092B204E0928906109250
:1032C000AE041092AF041092B0041092B10424E640
:1032D00030E040E050E06FE974E08FE19CE10E9453
:1032E000759C809183068823A1F098CD133009F452
:1032F0009FCE143009F40FCF153009F450CF16309B
:1033000009F491CF173009F074CD8091840687308D
:1033100071F280913801882309F46BCD01E080912E
:103320008406873009F000E060919F047091A0044A
:103330008091A1049091A2040E94DEC269837A83E5
:103340008B839C83CE0101960E9421A49C0148E1BD
:103350005CE193CD3F924F925F926F927F928F92FA
:103360009F92AF92BF92CF92DF92EF92FF920F9314
:103370001F93CF93DF930E946E99C0918106D0E096
:103380005524539463E0462E77EE372EE9EDCE2E8A
:10339000EBE1DE2EF7EEAF2EFBE1BF2EA5EF8A2E7E
:1033A000ABE19A2EB3E06B2EBCE17B2EC1113AC08B
:1033B000809184068823C1F080913801882361F0D0
:1033C00081E090918406911180E003E023E041E1E7
:1033D0005CE16D2F0E948316CF5FDF5FD43031F741
:1033E00087E0809382060CC08091B204882321F389
:1033F0001092B2040E946C16809183068823E1F239
:10340000DF91CF911F910F91FF90EF90DF90CF90C0
:10341000BF90AF909F908F907F906F905F904F90F4
:103420003F900895C13009F04AC0809184068130F0
:1034300009F180913801882379F24F923F921F92CF
:103440005F928AEC98E09F938F937F926F92DF93C5
:1034500081E090918406913009F080E08F930E9482
:103460008CAD8DB79EB70A960FB6F8949EBF0FBE6F
:103470008DBFB2CF8091B2048823D9F21092B204EA
:10348000C09389061092AE041092AF041092B0045B
:103490001092B104E12C10ECF12E09E714E420E0C5
:1034A00030E040E85FE36AEC78E08AE09CE10E946B
:1034B000259A80918306882309F4BBCFA1CFC2301F
:1034C00009F050C180918406823011F18091380159
:1034D000882309F481CF4F923F921F925F928EEC26
:1034E00098E09F938F939F928F92DF9381E09091CA
:1034F0008406923009F080E08F930E948CAD8DB7E6
:103500009EB70A960FB6F8949EBF0FBE8DBF64CFCC
:103510008091B2048823D1F21092B20450928906AD
:103520001092AE041092AF041092B0041092B10445
:10353000E12C10ECF12E09E714E420E030E040E843
:103540005FE36EEC78E08CEF9BE10E94259A80911E
:103550008306882309F4BACF53CF80918406833041
:1035600011F180913801882309F436CF4F923F92B0
:103570001F925F9282ED98E09F938F93BF92AF92DC
:10358000DF9381E090918406933009F080E08F937F
:103590000E948CAD8DB79EB70A960FB6F8949EBF69
:1035A0000FBE8DBF19CF8091B2048823D1F2109243
:1035B000B204509289061092AE041092AF04109299
:1035C000B0041092B104E12C10ECF12E09E714E4E0
:1035D00020E030E040E85FE362ED78E08EEE9BE1D2
:1035E0000E94259A80918306882309F4BACF08CFD8
:1035F00080918406843011F180913801882309F488
:10360000EBCE4F923F921F925F9286ED98E09F9390
:103610008F93DF92CF92DF9381E090918406943074
:1036200009F080E08F930E948CAD8DB79EB70A960B
:103630000FB6F8949EBF0FBE8DBFCECE8091B20460
:103640008823D1F21092B204509289061092AE04EF
:103650001092AF041092B0041092B104E12C10EC5F
:10366000F12E09E714E420E030E040E85FE366ED86
:1036700078E080EE9BE10E94259A80918306882362
:1036800009F4BACFBDCE80918406853021F18091B6
:103690003801882309F4A0CE4F923F921F921F92C7
:1036A00086EF98E09F938F938FEC9BE19F938F938E
:1036B000DF9381E090918406953009F080E08F934C
:1036C0000E948CAD8DB79EB70A960FB6F8949EBF38
:1036D0000FBE8DBF81CE8091B2048823C1F21092BB
:1036E000B204509289061092AE041092AF04109268
:1036F000B0041092B104E12C10ECF12E09E714E4AF
:1037000020E030E0A90166EF78E084ED9BE10E94C3
:10371000259A80918306882309F4B9CF71CE8091D0
:10372000B204882379F11092B20450928906109263
:10373000AE041092AF041092B0041092B104E12CC8
:1037400010ECF12E09E714E420E030E0A90162EF6B
:1037500078E085EC9BE10E94259A8091830688237E
:1037600089F04ECEC33009F4F8CEC43009F440CF0E
:10377000C53009F488CFC63009F02ECE809184067A
:10378000863069F280913801882309F425CE4F9262
:103790003F921F921F9282EF98E09F938F938BEB43
:1037A0009BE19F938F93DF9381E090918406963005
:1037B00009F080E08F930E948CAD8DB79EB70A967A
:1037C0000FB6F8949EBF0FBE8DBF06CE2F923F92CC
:1037D0004F925F926F927F928F929F92AF92BF9221
:1037E000CF92DF92EF92FF920F931F93CF93DF93CD
:1037F0000E946E99C0918106D0E0552453944424D0
:103800004A9454E4A52E5BE1B52E63E7362E78E5A5
:10381000872E7BE1972EE4E02E2EF0E66F2EFBE163
:103820007F2EC11188C080918406882309F462C06C
:1038300080913801882361F081E090918406911194
:1038400080E003E023E04EE65BE16D2F0E948316EB
:103850002CEA35EC47E25EE36091830470918404C6
:1038600080918504909186040E948DC760937F04A7
:103870007093800480938104909382042CEA35EC49
:1038800047E25EE360917B0470917C0480917D044B
:1038900090917E040E943FC36093770470937804F4
:1038A0008093790490937A04C43009F06AC18091BE
:1038B0008406843009F447C180913801882389F057
:1038C00011E080918406843009F010E083E794E0F1
:1038D0000E94BEA29C0148E35BE16D2F812F0E94F4
:1038E0003EADCF5FDF5FD43009F09BCF89E080939E
:1038F00082060EC08091B204882309F499CF1092F9
:10390000B2040E946C1680918306882309F490CF3C
:10391000DF91CF911F910F91FF90EF90DF90CF90AB
:10392000BF90AF909F908F907F906F905F904F90DF
:103930003F902F900895C13009F093C08091840684
:10394000813009F46BC080913801882301F186E74A
:1039500094E19F938F935F922F921F921F9282E028
:103960009EE09F938F937F926F92DF9381E090917F
:103970008406913009F080E08F930E9478AD8DB776
:103980009EB70C960FB6F8949EBF0FBE8DBF2CEA63
:1039900035EC47E25EE3609183047091840480918A
:1039A0008504909186040E948DC760937F04709374
:1039B000800480938104909382042CEA35EC47E2E2
:1039C0005EE360917B0470917C0480917D04909112
:1039D0007E040E943FC360937704709378048093C1
:1039E000790490937A04C73009F43AC1C83009F0D9
:1039F00078CF80918406883009F458C180913801CD
:103A0000882309F46ECF81E090918406983009F004
:103A100080E00EE32EE34EEF5AE135C18091B2040F
:103A2000882309F490CF1092B204C09389061092B3
:103A3000AE041092AF041092B0041092B10406E7E5
:103A400014E124E031E050E040E062E07EE087E60F
:103A50009BE10E94C49980918306882309F473CF67
:103A600057CFC23009F033C180918406823031F1E2
:103A700080913801882309F48ACF83E39BE29F93E6
:103A80008F931F923F921F921F928FE796E09F9312
:103A90008F939F928F92DF9381E090918406923072
:103AA00009F080E08F930E9478AD8DB79EB70C9699
:103AB0000FB6F8949EBF0FBE8DBFCACE8091B204E0
:103AC0008823B1F21092B204509289061092AE048B
:103AD0001092AF041092B0041092B10403E31BE201
:103AE00023E730E050E040E06FE776E08CE59BE1D3
:103AF0000E94C49980918306882309F4B9CF08CF26
:103B00008091B204882309F4EAC01092B204509262
:103B100089061092AE041092AF041092B004109275
:103B2000B10410E000E02FEF30E050E040E06AEF39
:103B300078E08EE49BE10E94C499809183068823FB
:103B400009F4CDC0E5CE8091B204882309F4B4CE47
:103B50001092B204D12CC12CE12C18E1F12E0CE111
:103B600016E420E030E040E85FE363E774E08EE3D2
:103B70009BE10E94EF9B80918306882309F49CCEF1
:103B8000C7CEC530A9F580918406853099F0809123
:103B90003801882309F4A5CE11E080918406853090
:103BA00009F010E08FE794E00E94BEA29C014CE275
:103BB0005BE193CE8091B204882349F31092B20462
:103BC00025E6C22E21E1D22EE12C18E1F12E0CE1E6
:103BD00016E42AE037ED43E25CE36FE774E082E34A
:103BE0009BE10E94EF9B80918306882381F290CE17
:103BF000C63009F0F8CE80918406863099F0809125
:103C00003801882309F46DCE11E080918406863056
:103C100009F010E087E794E00E94BEA29C0140E218
:103C20005BE15BCE8091B204882349F31092B20429
:103C30008EE4C82E81E1D82EE12C18E1F12E0CE1A2
:103C400016E420E030E040E85FE367E774E086E2F6
:103C50009BE10E94EF9B80918306882381F258CEDE
:103C600080918406873099F080913801882309F487
:103C700038CE81E090918406973009F080E00EE321
:103C80002EE34FE05BE16D2F0E9483162ACE8091D8
:103C9000B204882349F31092B2048AE39FE40E949D
:103CA000B0B1809183068823F9F232CE8091B204BC
:103CB000882309F4A3CE1092B20487E39FE40E9404
:103CC000B0B180918306882309F498CE21CEC33009
:103CD00009F0BECD80918406833009F411CF809124
:103CE0003801882309F453CE1F924F921F921F92DE
:103CF0008AEF98E09F938F93BF92AF92DF9381E01A
:103D000090918406933009F080E08F930E9478AD03
:103D10008DB79EB70A960FB6F8949EBF0FBE8DBFA3
:103D200097CD0F93CF93DF930E946E99D091810628
:103D3000C0E0D1112CC0809184068823C1F080910D
:103D40003801882361F081E090918406911180E030
:103D500003E023E04BE75AE16C2F0E948316DF5FFC
:103D6000CF5FC43031F785E0809382060CC080912C
:103D7000B204882321F31092B2040E946C16809141
:103D800083068823E1F2DF91CF910F910895D1301E
:103D900011F580918406813079F080913801882373
:103DA000F1F281E090918406913009F080E00EE319
:103DB0002EE344E75AE1D0CF8091B204882369F31F
:103DC0001092B20482EB90E20E94B0B1809183061F
:103DD000882319F3D8CFD23009F055C080918406DA
:103DE000823081F080913801882309F4B8CF81E0D6
:103DF00090918406923009F080E00EE32EE34DE6C8
:103E00005AE1AACF8091B204882361F31092B204E0
:103E100087EB90E20E94B0B180918306882311F372
:103E2000B2CF80918406833081F08091380188235D
:103E300009F495CF81E090918406933009F080E0F9
:103E40000EE32EE346E65AE187CF8091B204882341
:103E500061F31092B2048CEB90E20E94B0B18091B9
:103E60008306882311F38FCF8091B2048823A1F0B9
:103E70001092B20481EC90E20E94B0B1809183066E
:103E8000882351F080CFD33061F2D43009F067CF6E
:103E900080918406843041F380913801882309F4AD
:103EA0005ECF81E090918406943009F080E00EE3CB
:103EB0002EE34DE55AE150CF0F931F93CF93DF933D
:103EC000182F70937204609371040E946E99D091C0
:103ED0008106C0E081E0113009F459C048F1123088
:103EE00009F47EC0D111A3C08823D9F08091840643
:103EF0001816BCF0409185065091860660918706A1
:103F0000709188064F5F5F4F6F4F7F4F40938506DC
:103F10005093860660938706709388068F5F809320
:103F2000840680913801882341F16FE37AE154C01F
:103F3000D1117DC08823D9F0809184061816BCF079
:103F4000409185065091860660918706709188069B
:103F50004F5F5F4F6F4F7F4F4093850650938606AC
:103F600060938706709388068F5F809384068091A4
:103F7000380166E57AE181112FC0DF5F80E0CF5F15
:103F8000C43009F0A8CF85E08093820675C0D111B6
:103F90004EC08823D9F0809184061816BCF0409159
:103FA00085065091860660918706709188064F5F5E
:103FB0005F4F6F4F7F4F4093850650938606609307
:103FC0008706709388068F5F8093840680913801FE
:103FD0006FE47AE1882389F28C2F0E94EFACCDCF79
:103FE000D11125C08823D9F0809184061816BCF021
:103FF00040918506509186066091870670918806EB
:104000004F5F5F4F6F4F7F4F4093850650938606FB
:1040100060938706709388068F5F809384068091F3
:10402000380168E47AE1882309F4A7CFD5CFD130ED
:1040300041F580918406813099F080913801882380
:1040400009F49BCF81E090918406913009F080E0E3
:1040500003E023E045E35AE16C2F0E9483168DCFE5
:104060008091B204882349F31092B2040E946C1626
:1040700080918306882309F3DF91CF911F910F91DF
:104080000895D23009F055C080918406823081F0C5
:1040900080913801882309F470CF81E090918406E3
:1040A000923009F080E00EE32EE34BE25AE1D4CFE8
:1040B0008091B204882361F31092B20483E596E103
:1040C0000E94B0B180918306882311F3D5CF8091EF
:1040D0008406833081F080913801882309F44DCF24
:1040E00081E090918406933009F080E00EE32EE3A6
:1040F00042E25AE1B1CF8091B204882361F3109279
:10410000B20489E596E10E94B0B1809183068823CC
:1041100011F3B2CF8091B2048823A1F01092B204BF
:104120008FE596E10E94B0B180918306882351F01B
:10413000A3CFD33061F2D43009F01FCF8091840631
:10414000843041F380913801882309F416CF81E04F
:1041500090918406943009F080E00EE32EE347E16D
:104160005AE17ACF62E176E280E00C945C1F6DE068
:1041700076E281E00C945C1F68E076E282E00C94C9
:104180005C1F65E774E283E00C945C1F0F93CF9390
:10419000DF930E946E99D0918106C0E0D1112BC0AF
:1041A000809184068823B9F080913801882361F0DA
:1041B00081E090918406911180E003E023E044E5E2
:1041C00059E16C2F0E948316DF5FCF5FC43031F757
:1041D000C09382060CC08091B204882329F3109208
:1041E000B2040E946C16809183068823E9F2DF9165
:1041F000CF910F910895D13061F58091840681307F
:1042000079F0809138018823F9F281E09091840659
:10421000913009F080E000E22EE348E459E1D1CF8B
:104220008091B204882369F31092B20440918F0404
:1042300050919004609187047091880480918B0460
:1042400090918C040E941FA9809183068823C9F253
:10425000CECFD23009F042C080918406823081F006
:1042600080913801882309F4AFCF81E090918406D2
:10427000923009F080E000E22EE348E259E1A1CF5C
:104280008091B204882361F31092B20440918F04AC
:10429000509190046FEF7FEF80918B0490918C048C
:1042A0000E941FA9809183068823D1F2A0CF80911C
:1042B000B2048823D1F01092B20440918F0450913F
:1042C0009004609187047091880490E080E00E94DF
:1042D0001FA980918306882341F089CFD33009F04C
:1042E00073CF80918406833011F380913801882345
:1042F00009F46ACF81E090918406933009F080E060
:1043000000E22EE348E359E15CCF0F93CF93DF93B4
:104310000E946E99D0918106C0E0D1112BC080918E
:1043200084068823B9F080913801882361F081E008
:1043300090918406911180E003E023E048E859E180
:104340006C2F0E948316DF5FCF5FC43031F7C093BC
:1043500082060CC08091B204882329F31092B20423
:104360000E946C16809183068823E9F2DF91CF9139
:104370000F910895D13061F580918406813079F0F4
:10438000809138018823F9F281E090918406913080
:1043900009F080E000E22EE34CE759E1D1CF8091B3
:1043A000B204882369F31092B204409191045091B1
:1043B00092046091890470918A0480918D04909197
:1043C0008E040E941FA9809183068823C9F2CECF54
:1043D000D23009F042C080918406823081F0809111
:1043E0003801882309F4AFCF81E0909184069230A0
:1043F00009F080E000E22EE34CE559E1A1CF809185
:10440000B204882361F31092B20440919104509158
:1044100092046FEF7FEF80918D0490918E040E9443
:104420001FA9809183068823D1F2A0CF8091B20486
:104430008823D1F01092B2044091910450919204DB
:104440006091890470918A0490E080E00E941FA925
:1044500080918306882341F089CFD33009F073CF50
:1044600080918406833011F380913801882309F408
:104470006ACF81E090918406933009F080E000E2F9
:104480002EE34CE659E15CCF2F923F924F925F9220
:104490006F927F928F929F92AF92BF92CF92DF9254
:1044A000EF92FF920F931F93CF93DF930E946E9929
:1044B000C0918106D0E083E0482E97EE392E2AE0A5
:1044C000222E33EE632E38E1732E552453944DEE95
:1044D000E42E48E1F42E51E0C52E59E1D52E69E0D5
:1044E000A62E69E1B62E77E1872E79E1972EC111CC
:1044F0003BC0809184068823C1F0809138018823D5
:1045000061F081E090918406911180E003E023E066
:1045100043E259E16D2F0E948316CF5FDF5FD430F5
:1045200031F786E0809382060CC08091B204882324
:1045300021F31092B2040E946C16809183068823A6
:10454000E1F2DF91CF911F910F91FF90EF90DF90FB
:10455000CF90BF90AF909F908F907F906F905F9023
:104560004F903F902F900895C130E1F580918406DF
:10457000813009F180913801882379F24F923F927E
:104580001F922F9287E191E09F938F939F928F923A
:10459000DF9381E090918406913009F080E08F9361
:1045A0000E9478AD8DB79EB70A960FB6F8949EBF5D
:1045B0000FBE8DBFB2CF8091B2048823D9F2109282
:1045C000B20410E000E027EE33E04AE050E067E19B
:1045D00071E08DE199E10E94C4998091830688235E
:1045E00049F2AFCFC23009F0FAC080918406823020
:1045F00039F180913801882309F48FCF86E794E15F
:104600009F938F935F9294E09F931F921F9282E0FB
:104610009EE09F938F93BF92AF92DF9381E0909142
:104620008406923009F080E08F930E9478AD8DB7B8
:104630009EB70C960FB6F8949EBF0FBE8DBF6DCF80
:104640008091B2048823A9F21092B2045092890694
:104650001092AE041092AF041092B0041092B10404
:1046600006E714E124E031E050E040E062E07EE063
:1046700080E199E10E94C49980918306882309F41E
:10468000B8CF5FCF80918406833039F180913801B3
:10469000882309F442CF83E39BE29F938F931F9279
:1046A00093E79F931F921F928FE796E09F938F93BC
:1046B000DF92CF92DF9381E090918406933009F0EE
:1046C00080E08F930E9478AD8DB79EB70C960FB6A1
:1046D000F8949EBF0FBE8DBF20CF8091B204882377
:1046E000A9F21092B204509289061092AE04109270
:1046F000AF041092B0041092B10403E31BE223E76D
:1047000030E050E040E06FE776E085E099E10E941C
:10471000C49980918306882309F4B8CF12CF809181
:104720008406843019F180913801882309F4F5CE8C
:104730001F929FEF9F931F921F928AEF98E09F9383
:104740008F93FF92EF92DF9381E0909184069430F3
:1047500009F080E08F930E9478AD8DB79EB70A96DE
:104760000FB6F8949EBF0FBE8DBFD7CE8091B20416
:104770008823C9F21092B204509289061092AE04B6
:104780001092AF041092B0041092B10410E000E057
:104790002FEF30E050E040E06AEF78E087EF98E1FB
:1047A0000E94C49980918306882309F4BCCFC9CEA6
:1047B0008091B204882301F11092B2040CE711E158
:1047C00027EE33E04AE050E065E171E088EE98E1E1
:1047D0000E94C49980918306882371F0B2CEC330C1
:1047E00009F450CFC43009F49ACFC53009F095CE02
:1047F000809184068530E1F280913801882309F4A4
:104800008CCE8CE791E19F938F934F923F921F92B2
:104810002F9285E191E09F938F937F926F92DF9328
:1048200081E090918406953009F080E08F930E949A
:1048300078AD8DB79EB70C960FB6F8949EBF0FBE9D
:104840008DBF6BCECF93DF93EC01FE018491882363
:1048500021F00E942C9E2196F8CFDF91CF910895F0
:10486000CF93DF93EC018991882319F00E942C9E4D
:10487000FACFDF91CF9108950F931F93CF93DF93DA
:10488000EC018B0161E081E00E94DC9DCE010E9481
:10489000FC9D0115110521F16AE388E09EE00E946C
:1048A000F69DCE010E94E1ACEC01C8010E9430AD42
:1048B0002196C80FD91F61E062970CF062E092E187
:1048C000981B892F0E94DC9D60E288E09EE00E9498
:1048D000F69DC801DF91CF911F910F910C94302468
:1048E000DF91CF911F910F910895CF938091B204E2
:1048F0001092B204882329F01092AD04CF910C9449
:104900006C16C1E0C09331016091850670918606F6
:104910008091870690918806611571058105910542
:1049200059F10E94E0C220916D0430916E044091D3
:104930006F04509170040E943FC32091DC043091B9
:10494000DD044091DE045091DF040E940AC76093A9
:10495000DC047093DD048093DE049093DF0483E035
:104960000E947814C0933801109285061092860632
:10497000109287061092880680913801882351F0A2
:104980008CED94E00E9461A6BC018EE09AE1CF918B
:104990000C943C24CF9108953F924F925F926F9276
:1049A0007F928F929F92AF92BF92CF92DF92EF92BF
:1049B000FF920F931F93CF93DF93CDB7DEB72A9764
:1049C0000FB6F894DEBF0FBECDBF9A878987362E0B
:1049D0008091B2041092B2048823E1F01092AD04E9
:1049E0000E946C162A960FB6F894DEBF0FBECDBF9C
:1049F000DF91CF911F910F91FF90EF90DF90CF90BB
:104A0000BF90AF909F908F907F906F905F904F90EE
:104A10003F90089581E080933101809185069091C7
:104A20008606A0918706B09188068D839E83AF830A
:104A3000B887892B8A2B8B2B09F454C094E0699F8B
:104A400080011124F801E053FB4F408051806280C7
:104A5000738080912501811184C020E030E04AE715
:104A600054E4C301B2010E9409C74B015C0120E07C
:104A700030E04AE754E4C301B2010E940AC76B0167
:104A80007C016D817E818F8198850E94E0C220919A
:104A90006D0430916E0440916F04509170040E9437
:104AA0003FC3A30192010E940AC72B013C018D81E3
:104AB0009E81AF81B885B7FF95C0A5019401C30160
:104AC000B2010E94D9C287FD85C0F801E053FB4FB7
:104AD0004082518262827382832D0E94781481E029
:104AE00080933801109285061092860610928706F0
:104AF0001092880680913801882309F473CFA4E0CE
:104B00003A9EC0011124FC01E053FB4F8B5A9B4F8E
:104B1000DC012D913D914D915C916081718182818B
:104B200093810E940AC769837A838B839C832DECCF
:104B30003CEC4CEC5DE360916D0470916E048091EF
:104B40006F04909170040E948DC887FD5CC0CE01F7
:104B500001960E9461A6BC0189859A850E943C2429
:104B600041CFA1E06A17A1F0B2E06B1711F180907C
:104B7000610490906204A0906304B0906404C090BB
:104B80001901D0901A01E0901B01F0901C0179CF1F
:104B90008090650490906604A0906704B0906804CB
:104BA000C0901D01D0901E01E0901F01F0902001E7
:104BB00068CF8090690490906A04A0906B04B090D4
:104BC0006C04C0902101D0902201E0902301F0906C
:104BD000240157CFF801E053FB4F80829182A282DB
:104BE000B3827ACFA7019601C301B2010E948DC89A
:104BF00018160CF06ACFF801E053FB4FC082D18247
:104C0000E282F38269CFCE0101960E94969AA3CFE9
:104C100062E087E09AE10C94CC2461E080E09AE1C4
:104C20000C94CC2460E089EF99E10C94CC2464E0EE
:104C300084E10E949B9E0E9447A90C94EE9D4F9296
:104C40005F926F927F928F929F92AF92BF92CF921C
:104C5000DF92EF92FF920F931F93CF93DF93CDB725
:104C6000DEB72A970FB6F894DEBF0FBECDBF81E046
:104C700080933101109289068091B2041092B2049F
:104C8000882301F10E94172640E050E0BA018CE928
:104C900096E40E941C162A960FB6F894DEBF0FBE4B
:104CA000CDBFDF91CF911F910F91FF90EF90DF90DB
:104CB000CF90BF90AF909F908F907F906F905F90BC
:104CC0004F90089540918506509186066091870621
:104CD000709188062091170130911801C901840F45
:104CE000951F243631050CF032C1853691050CF044
:104CF00035C1909318018093170110928506109288
:104D0000860610928706109288068091170190916E
:104D10001801883EE3E09E0714F087EE93E08A30A6
:104D2000910514F48AE090E09093180180931701A4
:104D30000E94E59F00914704109148042091490486
:104D400030914A046B017C01C01AD10AE20AF30ACD
:104D50009701860137FD11C02091460420952093CC
:104D600046046A547C4F8F4F9F4F60934704709363
:104D700048048093490490934A040091460460E0FB
:104D800080E00E94DC9D8090040E9090050EA09023
:104D9000060EB090070E6091020E7091030E072E62
:104DA000000C880B990B0E94E0C26B017C0182E031
:104DB0000E942C9E20E030E040E05FE3C501B4019A
:104DC0000E940AC70E94FFC7CB010E9481A70E94D0
:104DD0005C996FE288E09EE00E94F69D20E030E062
:104DE00040E05FE3C701B6010E940AC70E94FFC707
:104DF000CB010E9456A70E945C9981E00E942C9EE4
:104E000060E288E09EE00E94F69D20E030E040E213
:104E100051E4C701B6010E94D9C287FF05C060E214
:104E200088E09EE00E94F69D60E08AE00E94DC9DA2
:104E300080904C0490904D04A0904E04B0904F048C
:104E400060917F0670918006072E000C880B990BED
:104E50000E94E0C26B017C0180E00E942C9E20E059
:104E600030E040E05FE3C501B4010E940AC70E9440
:104E7000FFC7CB010E9481A70E945C996FE288E086
:104E80009EE00E94F69D20E030E040E05FE3C70135
:104E9000B6010E940AC70E94FFC7CB010E9456A715
:104EA0000E945C9981E00E942C9E60E288E09EE076
:104EB0000E94F69D20E030E040E251E4C701B601D7
:104EC0000E94D9C287FF05C060E288E09EE00E9490
:104ED000F69D61E080E00E94DC9D209155043091B8
:104EE000560440915704509158046091D004709139
:104EF000D1048091D2049091D3040E940AC76B011F
:104F00007C0120E030E0A9010E94D9C220E030E01D
:104F100040E05FEB87FD04C020E030E040E05FE36D
:104F2000C701B6010E940AC70E94FFC7CB010E94B9
:104F3000D7A6D82E192F68E588E09EE00E94F69D3E
:104F40000023F1F08D2D912F0E945C9934C02436FE
:104F5000310539F0843691050CF0CBCE84E690E033
:104F6000C8CE433051056105710514F00297C1CEDA
:104F70004E3F5F4F6F4F7F4F0CF0C7CE0296B9CEBA
:104F800080914B0480FD0FC0ED2CF12EF701619153
:104F90007F01662381F06F320CF06FE388E09EE0C2
:104FA0000E94F69DF3CF8091C20480FDCBCF82E2B8
:104FB00098E10E94222460E288E09EE00E94F69D33
:104FC0002091590430915A0440915B0450915C0443
:104FD0006091D4047091D5048091D6049091D70447
:104FE0000E940AC76B017C0120E030E0A9010E9409
:104FF000D9C220E030E040E05FEB87FD04C020E054
:1050000030E040E05FE3C701B6010E940AC70E949A
:10501000FFC7CB010E94D7A6D82E192F69E588E0DB
:105020009EE00E94F69D002329F08D2D912F0E9475
:105030005C991BC080914B0481FD0FC0ED2CF12EBB
:10504000F70161917F01662381F06F320CF06FE30D
:1050500088E09EE00E94F69DF3CF8091C20481FD1E
:10506000E4CF82E298E10E94222461E08CE00E9479
:10507000DC9D20915D0430915E0440915F0450916D
:1050800060046091D8047091D9048091DA04909101
:10509000DB040E940AC76B017C0120E030E04AE794
:1050A00054E40E943FC34B015C0120E030E0A901C1
:1050B000C701B6010E94D9C220E030E040EA50ECBE
:1050C00087FD04C020E030E040EA50E4C501B401AF
:1050D0000E940AC720E030E040E251E40E948DC700
:1050E0000E94FFC76B017C01F7FC1AC160E2F0E18E
:1050F000CF16F7E2DF06E104F10484F0B60120E107
:1051000037E240E050E00E943FC9CA01B9012AE0FD
:1051100030E040E050E00E943FC9605D6093690666
:1051200060E228EEC21623E0D206E104F1048CF01E
:10513000C701B60128EE33E040E050E00E943FC9CD
:10514000CA01B9012AE030E040E050E00E943FC9C6
:10515000605D60936A06C701B60124E630E040E076
:1051600050E00E943FC99AE0892E912CA12CB12CCD
:10517000CA01B901A50194010E943FC9605D609315
:105180006B06C701B601A50194010E943FC9162F05
:10519000CA01B901A50194010E943FC9112309F474
:1051A000C9C08EE280936C06605D60936D06105DF1
:1051B00010936E066AE588E09EE00E94F69D00234B
:1051C00009F4CAC089E696E00E945C9962E080E03A
:1051D0000E94DC9D86E00E942C9E80911701909198
:1051E00018010E9481A70E945C9965E288E09EE018
:1051F0000E94F69D62E087E00E94DC9D88E198E1D4
:105200000E9422248091370E882309F4C4C0809123
:105210000310882309F4BDC08091AD109091AE10A9
:10522000A091AF10B091B0100097A105B10509F49D
:10523000B0C0BC01CD016D597F4F8F4F9F4F24E609
:1052400030E040E050E00E94CDC66091B110709116
:10525000B2108091B3109091B4100E94CDC6822FED
:1052600090E00E9481A70E945C9965E288E09EE040
:105270000E94F69D0E94AE142B013C0120E13EE00D
:1052800040E050E00E94CDC669018CE3882E912C4D
:10529000A12CB12CC301B201A50194010E94CDC67D
:1052A000CA01B901A50194010E94CDC68E010F5F0C
:1052B0001F4FF4E6CF16D10408F072C07F936F93AE
:1052C000DF92CF928AE098E19F938F931F930F9381
:1052D0000E9470C20FB6F894DEBF0FBECDBF95E03E
:1052E00062E083E1891B0E94DC9D87E00E942C9E86
:1052F000C8010E94302463E080E00E94DC9D87EEBC
:105300009DE00E9430AD182F0E94159E143108F0C8
:10531000C2CC60E288E09EE00E94F69D1F5FF6CF5F
:10532000F094E094D094C094C11CD11CE11CF11CF9
:105330006DE2F4CE662351F08EE280936C06605DE0
:1053400060936D0680E280936E0634CF80E2809396
:105350006D0680936C06F6CF80914B0482FD10C0E1
:1053600009E616E0F80161918F01662309F42ECF5A
:105370006F320CF06FE388E09EE00E94F69DF2CF62
:105380008091C20482FD1ECF8BE198E10E9422240D
:105390001DCF20E064CF84E198E10E94222465CFF4
:1053A0007F936F93DF92CF9282E098E19F938F93E8
:1053B0001F930F930E9470C20FB6F894DEBF0FBE0A
:1053C000CDBF96E08DCFEF92FF920F931F93CF93B7
:1053D000DF93CDB7DEB728970FB6F894DEBF0FBEC8
:1053E000CDBF8E010F5F1F4FD80130E020E0FB01E1
:1053F000E20FF31FE491ED932F5F3F4F283031050B
:10540000B1F7877028E0829FC001112480640E9458
:10541000D69D780188E0E80EF11CF80161918F01BA
:1054200088E09EE00E94F69DE016F106B1F728960E
:105430000FB6F894DEBF0FBECDBFDF91CF911F91A5
:105440000F91FF90EF9008958F929F92AF92BF922D
:10545000CF92DF92EF92FF920F931F93CF93DF9340
:10546000B0E2A0E06A2F70E0AB014B0F511D5595E3
:1054700047954A1711F0B41319C0E2E8F7E16591B6
:105480007491072E000C880B990B0E94E0C2DF91EB
:10549000CF911F910F91FF90EF90DF90CF90BF9031
:1054A000AF909F908F900895B42FDECF9A01215036
:1054B0003109220F331F220F331FF901EC5FF84E21
:1054C000E590F490F901E85FF84EC591D4918E15FE
:1054D0009F0554F3A42FC817D9070CF4C3CFF901C3
:1054E000EA5FF84E05911491F901E65FF84EC59018
:1054F000D490BC016E197F09072E000C880B990B04
:105500000E94E0C24B015C01B601601B710B072ECB
:10551000000C880B990B0E94E0C29B01AC01C501F5
:10552000B4010E943FC34B015C01BE016E197F09AB
:10553000072E000C880B990B0E94E0C29B01AC0166
:10554000C501B4010E948DC76B017C01B801110F28
:10555000880B990B0E94E0C29B01AC01C701B60108
:105560000E940AC794CF0F930FB70F9300916E005C
:105570000B7F00936E0078940F930BB70F930CB7CB
:105580000F921F922F933F934F935F936F937F934D
:105590008F939F93AF93BF93EF93FF9311240E9438
:1055A000D94FFF91EF91BF91AF919F918F917F91D3
:1055B0006F915F914F913F912F911F900F900CBF72
:1055C0000F910BBF0F910460F89400936E000F9140
:1055D0000FBF0F911895CF92DF92EF92FF92C0907C
:1055E0004C04D0904D04E0904E04F0904F04609134
:1055F0007F067091800666507109072E000C880B9B
:10560000990B0E94E0C2A70196010E948DC818164E
:105610000CF520E030E040E050E4C701B6010E9404
:105620000AC70E9406C870930804609307040E948A
:10563000E59F605E70448D4F9F4F609303047093AD
:1056400004048093050490930604FF90EF90DF908C
:10565000CF90089510920304109204041092050450
:1056600010920604F2CF0C94EB2A8F929F92AF9285
:10567000BF92CF92DF92EF92FF920F931F93CF933F
:10568000DF93B0E2A0E06A2F70E0AB014B0F511D39
:1056900055954795A41711F0B41319C0E2E8F7E146
:1056A00065917491072E000C880B990B0E94E0C243
:1056B000DF91CF911F910F91FF90EF90DF90CF90EE
:1056C000BF90AF909F908F900895B42FDECF9A0136
:1056D00021503109220F331F220F331FF901EC5FD4
:1056E000F84EE590F490F901E85FF84EC591D49139
:1056F0008E159F0554F3A42FC817D9070CF4C3CFF8
:10570000F901EA5FF84E05911491F901E65FF84E50
:10571000C590D490BC016E197F09072E000C880B30
:10572000990B0E94E0C24B015C01B601601B710B3A
:10573000072E000C880B990B0E94E0C29B01AC0164
:10574000C501B4010E943FC34B015C01BE016E194B
:105750007F09072E000C880B990B0E94E0C29B0169
:10576000AC01C501B4010E948DC76B017C01B80179
:10577000110F880B990B0E94E0C29B01AC01C7017D
:10578000B6010E940AC794CF80910B0490910C043B
:105790000E94242A6093040E7093050E8093060ED7
:1057A0009093070E8091090490910A040E94352B72
:1057B00060934C0470934D0480934E0490934F0477
:1057C000A89510920D040895109250041092CB03E6
:1057D0001092CC031092CD031092CE031092CF03FF
:1057E0001092D0031092D1031092D2031092C703EB
:1057F0001092C8031092C9031092CA0308958091B1
:1058000050048130F1F08230C9F40E94AE146093EC
:10581000C7037093C8038093C9039093CA0381E0C0
:10582000809350040E94E59F6093CB037093CC0358
:105830008093CD039093CE0381E008950E94E42BE2
:10584000EECF80E00895809150048150823070F452
:10585000109250040E94E59F6093CF037093D00391
:105860008093D1039093D20381E0089580E008955E
:1058700090E080E00E940FA91092800610927F06AF
:105880000E94EB2A0E94232C90E080E00E940FA946
:1058900010921E045D981092800610927F0610925E
:1058A0001F045C980895BC012091A8033091A903BE
:1058B0004091A8035091A9032417350731F481E0E2
:1058C0002617370709F080E008959A01F1CF0F936A
:1058D0000FB70F9300916E000F930B7F00936E0034
:1058E00000916F000D7F00936F000F930BB70F9324
:1058F0000CB70F921F922F933F934F935F936F9329
:105900007F938F939F93AF93BF93EF93FF93112454
:105910000E94D72CFF91EF91BF91AF919F918F91F2
:105920007F916F915F914F913F912F911F900F90B9
:105930000CBF0F910BBF0F910260F89400936F00A2
:105940000F9100936E000F910FBF0F9118958091EA
:10595000610380FF20C045988FEF809308018091FC
:10596000610381FF1BC047988FEF809309018091ED
:10597000610382FF16C02A9A8FEF80930A018091FB
:10598000610383FF11C028988FEF80930B01000003
:10599000000000000895459A81E0DFCF479A81E03A
:1059A000E4CF2A9881E0E9CF289A81E0EECF2F92C8
:1059B0003F924F925F926F927F928F929F92BF928F
:1059C000CF92DF92EF92FF920F931F93CF93DF93CB
:1059D000F8948FEF9FEF90938900809388007AE08E
:1059E000B72E312C212CEAE98E2EE6E19E2E7894FA
:1059F0008091A4039091A503A091A603B091A70361
:105A0000892B8A2B8B2B09F0CCC18091AA03882388
:105A1000D1F08091A8039091A9031092AA03892B39
:105A200091F010929B031092A9031092A8039091F9
:105A3000230E8091240E981731F08091240E8F5FF1
:105A40008F708093240E8091A8039091A903892BD5
:105A500009F4A7C14091A0035091A1036091A20352
:105A60007091A30380919C0390919D03A0919E034C
:105A7000B0919F03C0908E03D12CF12CE12C841B9C
:105A8000950BA60BB70BC816D906EA06FB0610F451
:105A9000D701C601382F840F951FA61FB71F80930B
:105AA000A0039093A103A093A203B093A3038091BA
:105AB0008400909185004E96409176035091770333
:105AC0006091780370917903C0906603D09067036A
:105AD000E0906803F09069034C0D5D1D6E1D7F1D05
